{
  "transactions": [
    {
      "hash": "0x844a4d4a5435ad84d8dc0c0cdf92f97dc03e5588ee851c2c0e748f69e9f3f6c4",
      "transactionType": "CALL",
      "contractName": null,
      "contractAddress": "0xcAed8046d2e2b9E395f9b6f2d0206C77E380eBD4",
      "function": "setTrustedRemote(uint16,bytes)",
      "arguments": [
        "10102",
        "0xb65051d22d34090c65462ca3d989632024c3d961caed8046d2e2b9e395f9b6f2d0206c77e380ebd4"
      ],
      "transaction": {
        "type": "0x02",
        "from": "0x749f88e87eaeb030e478164cfd3681e27d0bcb42",
        "to": "0xcaed8046d2e2b9e395f9b6f2d0206c77e380ebd4",
        "gas": "0x1fcab",
        "value": "0x0",
        "data": "0xeb8d72b7000000000000000000000000000000000000000000000000000000000000277600000000000000000000000000000000000000000000000000000000000000400000000000000000000000000000000000000000000000000000000000000028b65051d22d34090c65462ca3d989632024c3d961caed8046d2e2b9e395f9b6f2d0206c77e380ebd4000000000000000000000000000000000000000000000000",
        "nonce": "0x5",
        "accessList": []
      },
      "additionalContracts": [],
      "isFixedGasLimit": false
    },
    {
      "hash": "0xbb7b7b268c654db8be811ef7a30f75c25e9b7df7d4e3e46af910c75b4135f8a2",
      "transactionType": "CALL",
      "contractName": null,
      "contractAddress": "0xcAed8046d2e2b9E395f9b6f2d0206C77E380eBD4",
      "function": "setRouter(address)",
      "arguments": [
        "0xefc3635CCc710A04B49b6E2A85Ff3714f029A314"
      ],
      "transaction": {
        "type": "0x02",
        "from": "0x749f88e87eaeb030e478164cfd3681e27d0bcb42",
        "to": "0xcaed8046d2e2b9e395f9b6f2d0206c77e380ebd4",
        "gas": "0xa52f",
        "value": "0x0",
        "data": "0xc0d78655000000000000000000000000efc3635ccc710a04b49b6e2a85ff3714f029a314",
        "nonce": "0x6",
        "accessList": []
      },
      "additionalContracts": [],
      "isFixedGasLimit": false
    },
    {
      "hash": "0x4848e853d2eadfccd5307aef6470fbcad55114f7a2ad2fe7540102ce70c7f9ec",
      "transactionType": "CALL",
      "contractName": null,
      "contractAddress": "0xcAed8046d2e2b9E395f9b6f2d0206C77E380eBD4",
      "function": "setDestinationChainId(uint16,bool)",
      "arguments": [
        "10102",
        "true"
      ],
      "transaction": {
        "type": "0x02",
        "from": "0x749f88e87eaeb030e478164cfd3681e27d0bcb42",
        "to": "0xcaed8046d2e2b9e395f9b6f2d0206c77e380ebd4",
        "gas": "0x10f7d",
        "value": "0x0",
        "data": "0x8ad121de00000000000000000000000000000000000000000000000000000000000027760000000000000000000000000000000000000000000000000000000000000001",
        "nonce": "0x7",
        "accessList": []
      },
      "additionalContracts": [],
      "isFixedGasLimit": false
    },
    {
      "hash": "0xe734700dec39e5a14bd233ad772bb62df2a7d98a71d4723803a27ddaa0a187fd",
      "transactionType": "CALL",
      "contractName": null,
      "contractAddress": "0x44fbb4c31410c80d454c0b870681276681C05Aeb",
      "function": "setRouter(address)",
      "arguments": [
        "0xefc3635CCc710A04B49b6E2A85Ff3714f029A314"
      ],
      "transaction": {
        "type": "0x02",
        "from": "0x749f88e87eaeb030e478164cfd3681e27d0bcb42",
        "to": "0x44fbb4c31410c80d454c0b870681276681c05aeb",
        "gas": "0x1016a",
        "value": "0x0",
        "data": "0xc0d78655000000000000000000000000efc3635ccc710a04b49b6e2a85ff3714f029a314",
        "nonce": "0x8",
        "accessList": []
      },
      "additionalContracts": [],
      "isFixedGasLimit": false
    },
    {
      "hash": "0x4a96beb95b88f8f169ad07b0b11b3b2aea3ddd0652fabc2a5588f2213581a6a0",
      "transactionType": "CALL",
      "contractName": null,
      "contractAddress": "0x44fbb4c31410c80d454c0b870681276681C05Aeb",
      "function": "setDestinationChainId(uint16,bool)",
      "arguments": [
        "4",
        "true"
      ],
      "transaction": {
        "type": "0x02",
        "from": "0x749f88e87eaeb030e478164cfd3681e27d0bcb42",
        "to": "0x44fbb4c31410c80d454c0b870681276681c05aeb",
        "gas": "0x10074",
        "value": "0x0",
        "data": "0x8ad121de00000000000000000000000000000000000000000000000000000000000000040000000000000000000000000000000000000000000000000000000000000001",
        "nonce": "0x9",
        "accessList": []
      },
      "additionalContracts": [],
      "isFixedGasLimit": false
    },
    {
      "hash": "0x873052591095ccbcddc96f6232f60dff3a666c70594fb756a3c33ef73740bf1f",
      "transactionType": "CALL",
      "contractName": null,
      "contractAddress": "0x44fbb4c31410c80d454c0b870681276681C05Aeb",
      "function": "addWormholeReceiver(uint16,address)",
      "arguments": [
        "4",
        "0x02a7DE48140D9D5843d71262d6790614b9cb6646"
      ],
      "transaction": {
        "type": "0x02",
        "from": "0x749f88e87eaeb030e478164cfd3681e27d0bcb42",
        "to": "0x44fbb4c31410c80d454c0b870681276681c05aeb",
        "gas": "0x1026a",
        "value": "0x0",
        "data": "0xf37ed6b2000000000000000000000000000000000000000000000000000000000000000400000000000000000000000002a7de48140d9d5843d71262d6790614b9cb6646",
        "nonce": "0xa",
        "accessList": []
      },
      "additionalContracts": [],
      "isFixedGasLimit": false
    },
    {
      "hash": "0x3e3a2473ff04989bc9609943b81a7ff48178e0786a2cc33c134b08a30f4e899b",
      "transactionType": "CALL",
      "contractName": null,
      "contractAddress": "0xefc3635CCc710A04B49b6E2A85Ff3714f029A314",
      "function": "addModule(address,uint8)",
      "arguments": [
        "0xcAed8046d2e2b9E395f9b6f2d0206C77E380eBD4",
        "1"
      ],
      "transaction": {
        "type": "0x02",
        "from": "0x749f88e87eaeb030e478164cfd3681e27d0bcb42",
        "to": "0xefc3635ccc710a04b49b6e2a85ff3714f029a314",
        "gas": "0x10364",
        "value": "0x0",
        "data": "0x40f182c5000000000000000000000000caed8046d2e2b9e395f9b6f2d0206c77e380ebd40000000000000000000000000000000000000000000000000000000000000001",
        "nonce": "0xb",
        "accessList": []
      },
      "additionalContracts": [],
      "isFixedGasLimit": false
    },
    {
      "hash": "0x514b43f98673d242b9cae591808d53d3f7ffe6c724da0ce876bbeaeed6c72d60",
      "transactionType": "CALL",
      "contractName": null,
      "contractAddress": "0xefc3635CCc710A04B49b6E2A85Ff3714f029A314",
      "function": "addModule(address,uint8)",
      "arguments": [
        "0x44fbb4c31410c80d454c0b870681276681C05Aeb",
        "2"
      ],
      "transaction": {
        "type": "0x02",
        "from": "0x749f88e87eaeb030e478164cfd3681e27d0bcb42",
        "to": "0xefc3635ccc710a04b49b6e2a85ff3714f029a314",
        "gas": "0x10364",
        "value": "0x0",
        "data": "0x40f182c500000000000000000000000044fbb4c31410c80d454c0b870681276681c05aeb0000000000000000000000000000000000000000000000000000000000000002",
        "nonce": "0xc",
        "accessList": []
      },
      "additionalContracts": [],
      "isFixedGasLimit": false
    },
    {
      "hash": "0x69ac147540cb30b4af0c31499e933a501f0ac344aafe096da6b603df3dc8411e",
      "transactionType": "CALL",
      "contractName": null,
      "contractAddress": "0xefc3635CCc710A04B49b6E2A85Ff3714f029A314",
      "function": "updateAuthorizedCaller(address,bool)",
      "arguments": [
        "0xEcFd9c649bbf2C7B19bcE4157e57AF579254A1c2",
        "true"
      ],
      "transaction": {
        "type": "0x02",
        "from": "0x749f88e87eaeb030e478164cfd3681e27d0bcb42",
        "to": "0xefc3635ccc710a04b49b6e2a85ff3714f029a314",
        "gas": "0x11139",
        "value": "0x0",
        "data": "0x8937ca15000000000000000000000000ecfd9c649bbf2c7b19bce4157e57af579254a1c20000000000000000000000000000000000000000000000000000000000000001",
        "nonce": "0xd",
        "accessList": []
      },
      "additionalContracts": [],
      "isFixedGasLimit": false
    },
    {
      "hash": "0x450ce5f09596af106b16a2f986e9e146fdd98fff42584da17eedeade833f43b1",
      "transactionType": "CALL",
      "contractName": null,
      "contractAddress": "0xEcFd9c649bbf2C7B19bcE4157e57AF579254A1c2",
      "function": "addDstChainContract(address)",
      "arguments": [
        "0x42DDDAB8759EE8Cc4E089E74802cBEF169F0D059"
      ],
      "transaction": {
        "type": "0x02",
        "from": "0x749f88e87eaeb030e478164cfd3681e27d0bcb42",
        "to": "0xecfd9c649bbf2c7b19bce4157e57af579254a1c2",
        "gas": "0xec99",
        "value": "0x0",
        "data": "0x90eed1ef00000000000000000000000042dddab8759ee8cc4e089e74802cbef169f0d059",
        "nonce": "0xe",
        "accessList": []
      },
      "additionalContracts": [],
      "isFixedGasLimit": false
    }
  ],
  "receipts": [],
  "libraries": [],
  "pending": [
    "0x844a4d4a5435ad84d8dc0c0cdf92f97dc03e5588ee851c2c0e748f69e9f3f6c4",
    "0xbb7b7b268c654db8be811ef7a30f75c25e9b7df7d4e3e46af910c75b4135f8a2",
    "0x4848e853d2eadfccd5307aef6470fbcad55114f7a2ad2fe7540102ce70c7f9ec",
    "0xe734700dec39e5a14bd233ad772bb62df2a7d98a71d4723803a27ddaa0a187fd",
    "0x4a96beb95b88f8f169ad07b0b11b3b2aea3ddd0652fabc2a5588f2213581a6a0",
    "0x873052591095ccbcddc96f6232f60dff3a666c70594fb756a3c33ef73740bf1f",
    "0x3e3a2473ff04989bc9609943b81a7ff48178e0786a2cc33c134b08a30f4e899b",
    "0x514b43f98673d242b9cae591808d53d3f7ffe6c724da0ce876bbeaeed6c72d60",
    "0x69ac147540cb30b4af0c31499e933a501f0ac344aafe096da6b603df3dc8411e",
    "0x450ce5f09596af106b16a2f986e9e146fdd98fff42584da17eedeade833f43b1"
  ],
  "returns": {},
  "timestamp": 1706777723,
  "chain": 43113,
  "multi": false,
  "commit": "0d1554c"
}