{
  "transactions": [
    {
      "hash": "0x426f627e26d22e70ade8de37abf6cfbf8453ca3e3433f9852b1d719dafe0ebe7",
      "transactionType": "CALL",
      "contractName": null,
      "contractAddress": "0xb65051d22D34090C65462CA3d989632024c3d961",
      "function": "setTrustedRemote(uint16,bytes)",
      "arguments": [
        "10106",
        "0xcaed8046d2e2b9e395f9b6f2d0206c77e380ebd4b65051d22d34090c65462ca3d989632024c3d961"
      ],
      "transaction": {
        "type": "0x00",
        "from": "0x749f88e87eaeb030e478164cfd3681e27d0bcb42",
        "to": "0xb65051d22d34090c65462ca3d989632024c3d961",
        "gas": "0x1fcab",
        "value": "0x0",
        "data": "0xeb8d72b7000000000000000000000000000000000000000000000000000000000000277a00000000000000000000000000000000000000000000000000000000000000400000000000000000000000000000000000000000000000000000000000000028caed8046d2e2b9e395f9b6f2d0206c77e380ebd4b65051d22d34090c65462ca3d989632024c3d961000000000000000000000000000000000000000000000000",
        "nonce": "0xe"
      },
      "additionalContracts": [],
      "isFixedGasLimit": false
    },
    {
      "hash": "0xb6b5992c95d1de320d1bdee210c82afc18af74d9456b0f960671c05c45d839b2",
      "transactionType": "CALL",
      "contractName": null,
      "contractAddress": "0xb65051d22D34090C65462CA3d989632024c3d961",
      "function": "setTargetAddress(address,bool)",
      "arguments": [
        "0x42DDDAB8759EE8Cc4E089E74802cBEF169F0D059",
        "true"
      ],
      "transaction": {
        "type": "0x00",
        "from": "0x749f88e87eaeb030e478164cfd3681e27d0bcb42",
        "to": "0xb65051d22d34090c65462ca3d989632024c3d961",
        "gas": "0x102be",
        "value": "0x0",
        "data": "0xf8cc5a0f00000000000000000000000042dddab8759ee8cc4e089e74802cbef169f0d0590000000000000000000000000000000000000000000000000000000000000001",
        "nonce": "0xf"
      },
      "additionalContracts": [],
      "isFixedGasLimit": false
    },
    {
      "hash": "0x21ac4a5998ddb3e315a9098c10b0e338f47e079603af95a477412234541a4763",
      "transactionType": "CALL",
      "contractName": null,
      "contractAddress": "0x02a7DE48140D9D5843d71262d6790614b9cb6646",
      "function": "setTargetAddress(address,bool)",
      "arguments": [
        "0x42DDDAB8759EE8Cc4E089E74802cBEF169F0D059",
        "true"
      ],
      "transaction": {
        "type": "0x00",
        "from": "0x749f88e87eaeb030e478164cfd3681e27d0bcb42",
        "to": "0x02a7de48140d9d5843d71262d6790614b9cb6646",
        "gas": "0x10297",
        "value": "0x0",
        "data": "0xf8cc5a0f00000000000000000000000042dddab8759ee8cc4e089e74802cbef169f0d0590000000000000000000000000000000000000000000000000000000000000001",
        "nonce": "0x10"
      },
      "additionalContracts": [],
      "isFixedGasLimit": false
    },
    {
      "hash": "0xe5a3ac5b074d13971b11fe2062212418ff58b9a0768d2dcf2b977e5472110678",
      "transactionType": "CALL",
      "contractName": null,
      "contractAddress": "0x02a7DE48140D9D5843d71262d6790614b9cb6646",
      "function": "setWormholeSender(address,bool)",
      "arguments": [
        "0x44fbb4c31410c80d454c0b870681276681C05Aeb",
        "true"
      ],
      "transaction": {
        "type": "0x00",
        "from": "0x749f88e87eaeb030e478164cfd3681e27d0bcb42",
        "to": "0x02a7de48140d9d5843d71262d6790614b9cb6646",
        "gas": "0xfa6a",
        "value": "0x0",
        "data": "0x04cfaca300000000000000000000000044fbb4c31410c80d454c0b870681276681c05aeb0000000000000000000000000000000000000000000000000000000000000001",
        "nonce": "0x11"
      },
      "additionalContracts": [],
      "isFixedGasLimit": false
    },
    {
      "hash": "0x65d174c25891403ca32d371b74bfe3deaf81c3192c3732cc253aab8cdaf902bd",
      "transactionType": "CALL",
      "contractName": null,
      "contractAddress": "0x42DDDAB8759EE8Cc4E089E74802cBEF169F0D059",
      "function": "addFlightModule(address)",
      "arguments": [
        "0xb65051d22D34090C65462CA3d989632024c3d961"
      ],
      "transaction": {
        "type": "0x00",
        "from": "0x749f88e87eaeb030e478164cfd3681e27d0bcb42",
        "to": "0x42dddab8759ee8cc4e089e74802cbef169f0d059",
        "gas": "0xecf3",
        "value": "0x0",
        "data": "0x883d6d4c000000000000000000000000b65051d22d34090c65462ca3d989632024c3d961",
        "nonce": "0x12"
      },
      "additionalContracts": [],
      "isFixedGasLimit": false
    },
    {
      "hash": "0x875f941786e5b61b57396176770a04dc27c5aaf55ac5ad64a8c3f60652f11e05",
      "transactionType": "CALL",
      "contractName": null,
      "contractAddress": "0x42DDDAB8759EE8Cc4E089E74802cBEF169F0D059",
      "function": "addFlightModule(address)",
      "arguments": [
        "0x02a7DE48140D9D5843d71262d6790614b9cb6646"
      ],
      "transaction": {
        "type": "0x00",
        "from": "0x749f88e87eaeb030e478164cfd3681e27d0bcb42",
        "to": "0x42dddab8759ee8cc4e089e74802cbef169f0d059",
        "gas": "0xecf3",
        "value": "0x0",
        "data": "0x883d6d4c00000000000000000000000002a7de48140d9d5843d71262d6790614b9cb6646",
        "nonce": "0x13"
      },
      "additionalContracts": [],
      "isFixedGasLimit": false
    }
  ],
  "receipts": [
    {
      "transactionHash": "0x426f627e26d22e70ade8de37abf6cfbf8453ca3e3433f9852b1d719dafe0ebe7",
      "transactionIndex": "0x2",
      "blockHash": "0x1ce9fdede223f60b489acfeb9ac7ab910a354e6648f0099e07f506704e5d81ca",
      "blockNumber": "0x23a0154",
      "from": "0x749f88e87EaEb030E478164cFd3681E27d0bcB42",
      "to": "0xb65051d22D34090C65462CA3d989632024c3d961",
      "cumulativeGasUsed": "0x29a3b",
      "gasUsed": "0x17045",
      "contractAddress": null,
      "logs": [
        {
          "address": "0xb65051d22D34090C65462CA3d989632024c3d961",
          "topics": [
            "0xfa41487ad5d6728f0b19276fa1eddc16558578f5109fc39d2dc33c3230470dab"
          ],
          "data": "0x000000000000000000000000000000000000000000000000000000000000277a00000000000000000000000000000000000000000000000000000000000000400000000000000000000000000000000000000000000000000000000000000028caed8046d2e2b9e395f9b6f2d0206c77e380ebd4b65051d22d34090c65462ca3d989632024c3d961000000000000000000000000000000000000000000000000",
          "blockHash": "0x1ce9fdede223f60b489acfeb9ac7ab910a354e6648f0099e07f506704e5d81ca",
          "blockNumber": "0x23a0154",
          "transactionHash": "0x426f627e26d22e70ade8de37abf6cfbf8453ca3e3433f9852b1d719dafe0ebe7",
          "transactionIndex": "0x2",
          "logIndex": "0x2",
          "removed": false
        }
      ],
      "status": "0x1",
      "logsBloom": "0x00000000000000000000000000000000000000000000000000000000000000000000000000000000000000000000000000000000000000000000002000000000400000000000000000000000000000000000000000000000000000000008000000000000000000000000000000000000000000000000000080000000000000000000000200000000000000000000000000000000000000000000000000000000000000000000000000000000000000000000000000000000000000000000000000000000000000000000000000000000000000000000000100000000000000000000000000000000000000000000000000000000000000000000000000000000",
      "type": "0x0",
      "effectiveGasPrice": "0x12ffbd300"
    },
    {
      "transactionHash": "0xb6b5992c95d1de320d1bdee210c82afc18af74d9456b0f960671c05c45d839b2",
      "transactionIndex": "0x2",
      "blockHash": "0xe166bf2ab2fd3d37adda3781f8041343bddb51795e09e56fd2bdcbd327154941",
      "blockNumber": "0x23a0155",
      "from": "0x749f88e87EaEb030E478164cFd3681E27d0bcB42",
      "to": "0xb65051d22D34090C65462CA3d989632024c3d961",
      "cumulativeGasUsed": "0x246030",
      "gasUsed": "0xbb54",
      "contractAddress": null,
      "logs": [
        {
          "address": "0xb65051d22D34090C65462CA3d989632024c3d961",
          "topics": [
            "0xf5c0c3579456e3e27ece27df7c707c975cc89e15291f7358582f4dc1eab60604",
            "0x00000000000000000000000042dddab8759ee8cc4e089e74802cbef169f0d059"
          ],
          "data": "0x0000000000000000000000000000000000000000000000000000000000000001",
          "blockHash": "0xe166bf2ab2fd3d37adda3781f8041343bddb51795e09e56fd2bdcbd327154941",
          "blockNumber": "0x23a0155",
          "transactionHash": "0xb6b5992c95d1de320d1bdee210c82afc18af74d9456b0f960671c05c45d839b2",
          "transactionIndex": "0x2",
          "logIndex": "0x5",
          "removed": false
        }
      ],
      "status": "0x1",
      "logsBloom": "0x00000000000000000000000000000000000000000000000000000000000000000000000000000000000000000000000000000000000000000000002000000000400000000000000000000004000000000000000000000000000000000000000000000000000000000000000000000000000000000000000000000000000000000001000000000000000000000000000000000000000000000000000000000000000000000000000000000040000001000000000000000000000000000000000000000000000000000000000000000000000000000000000100000000000000000000000000000000000000200080000000000000000000000000000000000000",
      "type": "0x0",
      "effectiveGasPrice": "0x12ffbd300"
    },
    {
      "transactionHash": "0x21ac4a5998ddb3e315a9098c10b0e338f47e079603af95a477412234541a4763",
      "transactionIndex": "0x3",
      "blockHash": "0xe166bf2ab2fd3d37adda3781f8041343bddb51795e09e56fd2bdcbd327154941",
      "blockNumber": "0x23a0155",
      "from": "0x749f88e87EaEb030E478164cFd3681E27d0bcB42",
      "to": "0x02a7DE48140D9D5843d71262d6790614b9cb6646",
      "cumulativeGasUsed": "0x251b68",
      "gasUsed": "0xbb38",
      "contractAddress": null,
      "logs": [
        {
          "address": "0x02a7DE48140D9D5843d71262d6790614b9cb6646",
          "topics": [
            "0xf5c0c3579456e3e27ece27df7c707c975cc89e15291f7358582f4dc1eab60604",
            "0x00000000000000000000000042dddab8759ee8cc4e089e74802cbef169f0d059"
          ],
          "data": "0x0000000000000000000000000000000000000000000000000000000000000001",
          "blockHash": "0xe166bf2ab2fd3d37adda3781f8041343bddb51795e09e56fd2bdcbd327154941",
          "blockNumber": "0x23a0155",
          "transactionHash": "0x21ac4a5998ddb3e315a9098c10b0e338f47e079603af95a477412234541a4763",
          "transactionIndex": "0x3",
          "logIndex": "0x6",
          "removed": false
        }
      ],
      "status": "0x1",
      "logsBloom": "0x00000000000000000001000000000000000000000000000000000000000000000000000000000000000000000000000000000000000000000000000000000000000000000000000000000004000000000000000000000000000000000000000000000000000000000000000000000000000000000000000000000000000000000001000000000000000000000000000000000000000000000000000000000000000000000000000000000040000001000000000000000000000000000000000000000000000000000000000000000000000000000000000000000000000000000000000000000000000080200080000000000000000000000020000000000000",
      "type": "0x0",
      "effectiveGasPrice": "0x12ffbd300"
    },
    {
      "transactionHash": "0xe5a3ac5b074d13971b11fe2062212418ff58b9a0768d2dcf2b977e5472110678",
      "transactionIndex": "0x4",
      "blockHash": "0xe166bf2ab2fd3d37adda3781f8041343bddb51795e09e56fd2bdcbd327154941",
      "blockNumber": "0x23a0155",
      "from": "0x749f88e87EaEb030E478164cFd3681E27d0bcB42",
      "to": "0x02a7DE48140D9D5843d71262d6790614b9cb6646",
      "cumulativeGasUsed": "0x25d0b5",
      "gasUsed": "0xb54d",
      "contractAddress": null,
      "logs": [],
      "status": "0x1",
      "logsBloom": "0x00000000000000000000000000000000000000000000000000000000000000000000000000000000000000000000000000000000000000000000000000000000000000000000000000000000000000000000000000000000000000000000000000000000000000000000000000000000000000000000000000000000000000000000000000000000000000000000000000000000000000000000000000000000000000000000000000000000000000000000000000000000000000000000000000000000000000000000000000000000000000000000000000000000000000000000000000000000000000000000000000000000000000000000000000000000",
      "type": "0x0",
      "effectiveGasPrice": "0x12ffbd300"
    },
    {
      "transactionHash": "0x65d174c25891403ca32d371b74bfe3deaf81c3192c3732cc253aab8cdaf902bd",
      "transactionIndex": "0x5",
      "blockHash": "0xe166bf2ab2fd3d37adda3781f8041343bddb51795e09e56fd2bdcbd327154941",
      "blockNumber": "0x23a0155",
      "from": "0x749f88e87EaEb030E478164cFd3681E27d0bcB42",
      "to": "0x42DDDAB8759EE8Cc4E089E74802cBEF169F0D059",
      "cumulativeGasUsed": "0x267c42",
      "gasUsed": "0xab8d",
      "contractAddress": null,
      "logs": [],
      "status": "0x1",
      "logsBloom": "0x00000000000000000000000000000000000000000000000000000000000000000000000000000000000000000000000000000000000000000000000000000000000000000000000000000000000000000000000000000000000000000000000000000000000000000000000000000000000000000000000000000000000000000000000000000000000000000000000000000000000000000000000000000000000000000000000000000000000000000000000000000000000000000000000000000000000000000000000000000000000000000000000000000000000000000000000000000000000000000000000000000000000000000000000000000000",
      "type": "0x0",
      "effectiveGasPrice": "0x12ffbd300"
    },
    {
      "transactionHash": "0x875f941786e5b61b57396176770a04dc27c5aaf55ac5ad64a8c3f60652f11e05",
      "transactionIndex": "0x6",
      "blockHash": "0xe166bf2ab2fd3d37adda3781f8041343bddb51795e09e56fd2bdcbd327154941",
      "blockNumber": "0x23a0155",
      "from": "0x749f88e87EaEb030E478164cFd3681E27d0bcB42",
      "to": "0x42DDDAB8759EE8Cc4E089E74802cBEF169F0D059",
      "cumulativeGasUsed": "0x2727cf",
      "gasUsed": "0xab8d",
      "contractAddress": null,
      "logs": [],
      "status": "0x1",
      "logsBloom": "0x00000000000000000000000000000000000000000000000000000000000000000000000000000000000000000000000000000000000000000000000000000000000000000000000000000000000000000000000000000000000000000000000000000000000000000000000000000000000000000000000000000000000000000000000000000000000000000000000000000000000000000000000000000000000000000000000000000000000000000000000000000000000000000000000000000000000000000000000000000000000000000000000000000000000000000000000000000000000000000000000000000000000000000000000000000000",
      "type": "0x0",
      "effectiveGasPrice": "0x12ffbd300"
    }
  ],
  "libraries": [],
  "pending": [],
  "returns": {},
  "timestamp": 1706777842,
  "chain": 97,
  "multi": false,
  "commit": "0d1554c"
}