{
  "transactions": [
    {
      "hash": "0x91ee4291949ed5ff675865472f34116b241339e8819e54b0b7f94151dfb7d00e",
      "transactionType": "CALL",
      "contractName": "Counter",
      "contractAddress": "0xEcFd9c649bbf2C7B19bcE4157e57AF579254A1c2",
      "function": "updateCounter(uint256,uint16,uint8)",
      "arguments": [
        "4",
        "4",
        "2"
      ],
      "transaction": {
        "type": "0x02",
        "from": "0x749f88e87eaeb030e478164cfd3681e27d0bcb42",
        "to": "0xecfd9c649bbf2c7b19bce4157e57af579254a1c2",
        "gas": "0x417bf",
        "value": "0x5dcaa8fe12000",
        "data": "0x1afc78c5000000000000000000000000000000000000000000000000000000000000000400000000000000000000000000000000000000000000000000000000000000040000000000000000000000000000000000000000000000000000000000000002",
        "nonce": "0x10",
        "accessList": []
      },
      "additionalContracts": [],
      "isFixedGasLimit": false
    }
  ],
  "receipts": [
    {
      "transactionHash": "0x91ee4291949ed5ff675865472f34116b241339e8819e54b0b7f94151dfb7d00e",
      "transactionIndex": "0x0",
      "blockHash": "0x62158b88c8594a8b57b3fb4416a93267a3e4065f376d5ac37054ed793f43665b",
      "blockNumber": "0x1c49f8d",
      "from": "0x749f88e87EaEb030E478164cFd3681E27d0bcB42",
      "to": "0xEcFd9c649bbf2C7B19bcE4157e57AF579254A1c2",
      "cumulativeGasUsed": "0x3017e",
      "gasUsed": "0x3017e",
      "contractAddress": null,
      "logs": [
        {
          "address": "0x7bbcE28e64B3F8b84d876Ab298393c38ad7aac4C",
          "topics": [
            "0x6eb224fb001ed210e379b335e35efe88672a8ce935d981a6896b27ffdf52a3b2",
            "0x000000000000000000000000a3cf45939bd6260bcfe3d66bc73d60f19e49a8bb"
          ],
          "data": "0x0000000000000000000000000000000000000000000000000000000000002bdb00000000000000000000000000000000000000000000000000000000000000000000000000000000000000000000000000000000000000000000000000000080000000000000000000000000000000000000000000000000000000000000000f000000000000000000000000000000000000000000000000000000000000024e01000400000000000000000000000002a7de48140d9d5843d71262d6790614b9cb66460000010000000000000000000000000044fbb4c31410c80d454c0b870681276681c05aeb000000000000000000000000000000000000000000000000000000000000004000000000000000000000000000000000000000000000000000000000000000a000000000000000000000000042dddab8759ee8cc4e089e74802cbef169f0d059000000000000000000000000000000000000000000000000000000000000004000000000000000000000000000000000000000000000000000000000000000247cf5dab000000000000000000000000000000000000000000000000000000000000000040000000000000000000000000000000000000000000000000000000000000000000000000000000000000000000000000000000000000000000000000000000000000000000000000000000000000000000000000000000000000000000000600000000000000000000000000000000000000000000000000000000000000000000000000000000000000000000000000000000000000000000000000000c35000000000000000000000000000000000000000000000000000000000aa4c8a490004000000000000000000000000000000000000000000000000000000000000000000000000000000000000000060a86b97a7596ebfd25fb769053894ed0d9a836600000000000000000000000060a86b97a7596ebfd25fb769053894ed0d9a836600000000000000000000000044fbb4c31410c80d454c0b870681276681c05aeb00000000000000000000000000000000000000",
          "blockHash": "0x62158b88c8594a8b57b3fb4416a93267a3e4065f376d5ac37054ed793f43665b",
          "blockNumber": "0x1c49f8d",
          "transactionHash": "0x91ee4291949ed5ff675865472f34116b241339e8819e54b0b7f94151dfb7d00e",
          "transactionIndex": "0x0",
          "logIndex": "0x0",
          "removed": false
        },
        {
          "address": "0xA3cF45939bD6260bcFe3D66bc73d60f19e49a8BB",
          "topics": [
            "0xda8540426b64ece7b164a9dce95448765f0a7263ef3ff85091c9c7361e485364",
            "0x0000000000000000000000000000000000000000000000000000000000002bdb"
          ],
          "data": "0x0000000000000000000000000000000000000000000000000005dcaa8fe120000000000000000000000000000000000000000000000000000000000000000000",
          "blockHash": "0x62158b88c8594a8b57b3fb4416a93267a3e4065f376d5ac37054ed793f43665b",
          "blockNumber": "0x1c49f8d",
          "transactionHash": "0x91ee4291949ed5ff675865472f34116b241339e8819e54b0b7f94151dfb7d00e",
          "transactionIndex": "0x0",
          "logIndex": "0x1",
          "removed": false
        },
        {
          "address": "0x44fbb4c31410c80d454c0b870681276681C05Aeb",
          "topics": [
            "0x9e3f6880b09f600fb1700d47178b9ca0946ffeb09ced2aeef4315408894c156c",
            "0x00000000000000000000000002a7de48140d9d5843d71262d6790614b9cb6646"
          ],
          "data": "0x000000000000000000000000000000000000000000000000000000000000000400000000000000000000000000000000000000000000000000000000000000600000000000000000000000000000000000000000000000000005dcaa8fe1200000000000000000000000000000000000000000000000000000000000000000a000000000000000000000000042dddab8759ee8cc4e089e74802cbef169f0d059000000000000000000000000000000000000000000000000000000000000004000000000000000000000000000000000000000000000000000000000000000247cf5dab0000000000000000000000000000000000000000000000000000000000000000400000000000000000000000000000000000000000000000000000000",
          "blockHash": "0x62158b88c8594a8b57b3fb4416a93267a3e4065f376d5ac37054ed793f43665b",
          "blockNumber": "0x1c49f8d",
          "transactionHash": "0x91ee4291949ed5ff675865472f34116b241339e8819e54b0b7f94151dfb7d00e",
          "transactionIndex": "0x0",
          "logIndex": "0x2",
          "removed": false
        },
        {
          "address": "0xefc3635CCc710A04B49b6E2A85Ff3714f029A314",
          "topics": [
            "0xc5ec7a37075c36152578ee86ab93db729d5503ca42f812aac823f3deef7ae637"
          ],
          "data": "0x0000000000000000000000000000000000000000000000000000000000000004000000000000000000000000000000000000000000000000000000000000000200000000000000000000000000000000000000000000000000000000000000800000000000000000000000000000000000000000000000000005dcaa8fe1200000000000000000000000000000000000000000000000000000000000000000a000000000000000000000000042dddab8759ee8cc4e089e74802cbef169f0d059000000000000000000000000000000000000000000000000000000000000004000000000000000000000000000000000000000000000000000000000000000247cf5dab0000000000000000000000000000000000000000000000000000000000000000400000000000000000000000000000000000000000000000000000000",
          "blockHash": "0x62158b88c8594a8b57b3fb4416a93267a3e4065f376d5ac37054ed793f43665b",
          "blockNumber": "0x1c49f8d",
          "transactionHash": "0x91ee4291949ed5ff675865472f34116b241339e8819e54b0b7f94151dfb7d00e",
          "transactionIndex": "0x0",
          "logIndex": "0x3",
          "removed": false
        }
      ],
      "status": "0x1",
      "logsBloom": "0x0000000000010000000000000080000800000000000000400200000004000000001001000000000000a000000000000000000000800040000000208000800000000000000000000000000000000000000000000000000000000000000200000000000000000000000020000040000000000000000000010000000000000000000000000000000000000000020100000000000000000000100040000000000000001480000400000000000000000000000000000000000000000000000000000000000000000000000000000000000000000000000000040000000000000000000400000000000000000000000000800002000008000000000000000000000002",
      "type": "0x2",
      "effectiveGasPrice": "0x684ee1800"
    }
  ],
  "libraries": [],
  "pending": [],
  "returns": {},
  "timestamp": 1706780610,
  "chain": 43113,
  "multi": false,
  "commit": "0d1554c"
}