{
  "transactions": [
    {
      "hash": "0x2e8f37cf49aa165c55f82494d0ebb0b413e839caba1b0dc1265f093fa373284d",
      "transactionType": "CALL",
      "contractName": "Counter",
      "contractAddress": "0xEcFd9c649bbf2C7B19bcE4157e57AF579254A1c2",
      "function": "updateCounter(uint256,uint16,uint8)",
      "arguments": [
        "3",
        "10102",
        "1"
      ],
      "transaction": {
        "type": "0x02",
        "from": "0x749f88e87eaeb030e478164cfd3681e27d0bcb42",
        "to": "0xecfd9c649bbf2c7b19bce4157e57af579254a1c2",
        "gas": "0x64cea",
        "value": "0x9e6cb3e7a63a59",
        "data": "0x1afc78c5000000000000000000000000000000000000000000000000000000000000000300000000000000000000000000000000000000000000000000000000000027760000000000000000000000000000000000000000000000000000000000000001",
        "nonce": "0xf",
        "accessList": []
      },
      "additionalContracts": [],
      "isFixedGasLimit": false
    }
  ],
  "receipts": [
    {
      "transactionHash": "0x2e8f37cf49aa165c55f82494d0ebb0b413e839caba1b0dc1265f093fa373284d",
      "transactionIndex": "0x0",
      "blockHash": "0x0f719612edb11a36e49bee3f11e6d2ceab2b24cce6c96b81acc70ec063bfa383",
      "blockNumber": "0x1c49f3d",
      "from": "0x749f88e87EaEb030E478164cFd3681E27d0bcB42",
      "to": "0xEcFd9c649bbf2C7B19bcE4157e57AF579254A1c2",
      "cumulativeGasUsed": "0x464b9",
      "gasUsed": "0x464b9",
      "contractAddress": null,
      "logs": [
        {
          "address": "0xA30444B26C171B27c6B3698544490Affa2e12119",
          "topics": [
            "0xdf21c415b78ed2552cc9971249e32a053abce6087a0ae0fbf3f78db5174a3493"
          ],
          "data": "0x00000000000000000000000000000000000000000000000000770501d307f33a",
          "blockHash": "0x0f719612edb11a36e49bee3f11e6d2ceab2b24cce6c96b81acc70ec063bfa383",
          "blockNumber": "0x1c49f3d",
          "transactionHash": "0x2e8f37cf49aa165c55f82494d0ebb0b413e839caba1b0dc1265f093fa373284d",
          "transactionIndex": "0x0",
          "logIndex": "0x0",
          "removed": false
        },
        {
          "address": "0xfDDAFFa49e71dA3ef0419a303a6888F94bB5Ba18",
          "topics": [
            "0xb0c632f55f1e1b3b2c3d82f41ee4716bb4c00f0f5d84cdafc141581bb8757a4f"
          ],
          "data": "0x00000000000000000000000000000000000000000000000000000000000000400000000000000000000000000000000000000000000000000000000000000001000000000000000000000000000000000000000000000000000000000000002200010000000000000000000000000000000000000000000000000000000000055730000000000000000000000000000000000000000000000000000000000000",
          "blockHash": "0x0f719612edb11a36e49bee3f11e6d2ceab2b24cce6c96b81acc70ec063bfa383",
          "blockNumber": "0x1c49f3d",
          "transactionHash": "0x2e8f37cf49aa165c55f82494d0ebb0b413e839caba1b0dc1265f093fa373284d",
          "transactionIndex": "0x0",
          "logIndex": "0x1",
          "removed": false
        },
        {
          "address": "0x92Cfdb3789693C2ae7225fCc2C263de94D630be4",
          "topics": [
            "0x4e41ee13e03cd5e0446487b524fdc48af6acf26c074dacdbdfb6b574b42c8146"
          ],
          "data": "0x000000000000000000000000000000000000000000000000000000000000277600000000000000000000000000000000000000000000000000000000000000010000000000000000000000000000000000000000000000000000000000000006000000000000000000000000caed8046d2e2b9e395f9b6f2d0206c77e380ebd4000000000000000000000000000000000000000000000000002767b2149e471f",
          "blockHash": "0x0f719612edb11a36e49bee3f11e6d2ceab2b24cce6c96b81acc70ec063bfa383",
          "blockNumber": "0x1c49f3d",
          "transactionHash": "0x2e8f37cf49aa165c55f82494d0ebb0b413e839caba1b0dc1265f093fa373284d",
          "transactionIndex": "0x0",
          "logIndex": "0x2",
          "removed": false
        },
        {
          "address": "0xfDDAFFa49e71dA3ef0419a303a6888F94bB5Ba18",
          "topics": [
            "0xe9bded5f24a4168e4f3bf44e00298c993b22376aad8c58c7dda9718a54cbea82"
          ],
          "data": "0x000000000000000000000000000000000000000000000000000000000000002000000000000000000000000000000000000000000000000000000000000000d40000000000000001277acaed8046d2e2b9e395f9b6f2d0206c77e380ebd42776b65051d22d34090c65462ca3d989632024c3d96100000000000000000000000042dddab8759ee8cc4e089e74802cbef169f0d059000000000000000000000000000000000000000000000000000000000000004000000000000000000000000000000000000000000000000000000000000000247cf5dab0000000000000000000000000000000000000000000000000000000000000000300000000000000000000000000000000000000000000000000000000000000000000000000000000",
          "blockHash": "0x0f719612edb11a36e49bee3f11e6d2ceab2b24cce6c96b81acc70ec063bfa383",
          "blockNumber": "0x1c49f3d",
          "transactionHash": "0x2e8f37cf49aa165c55f82494d0ebb0b413e839caba1b0dc1265f093fa373284d",
          "transactionIndex": "0x0",
          "logIndex": "0x3",
          "removed": false
        },
        {
          "address": "0xcAed8046d2e2b9E395f9b6f2d0206C77E380eBD4",
          "topics": [
            "0x7111928ff2488b34b45ac2607d33e5927064ea481b78b591e555050801e80246"
          ],
          "data": "0x000000000000000000000000000000000000000000000000000000000000277600000000000000000000000000000000000000000000000000000000000000800000000000000000000000000000000000000000000000000000000000000140000000000000000000000000000000000000000000000000009e6cb3e7a63a5900000000000000000000000000000000000000000000000000000000000000a000000000000000000000000042dddab8759ee8cc4e089e74802cbef169f0d059000000000000000000000000000000000000000000000000000000000000004000000000000000000000000000000000000000000000000000000000000000247cf5dab0000000000000000000000000000000000000000000000000000000000000000300000000000000000000000000000000000000000000000000000000000000000000000000000000000000000000000000000000000000000000002200010000000000000000000000000000000000000000000000000000000000055730000000000000000000000000000000000000000000000000000000000000",
          "blockHash": "0x0f719612edb11a36e49bee3f11e6d2ceab2b24cce6c96b81acc70ec063bfa383",
          "blockNumber": "0x1c49f3d",
          "transactionHash": "0x2e8f37cf49aa165c55f82494d0ebb0b413e839caba1b0dc1265f093fa373284d",
          "transactionIndex": "0x0",
          "logIndex": "0x4",
          "removed": false
        },
        {
          "address": "0xefc3635CCc710A04B49b6E2A85Ff3714f029A314",
          "topics": [
            "0xc5ec7a37075c36152578ee86ab93db729d5503ca42f812aac823f3deef7ae637"
          ],
          "data": "0x000000000000000000000000000000000000000000000000000000000000277600000000000000000000000000000000000000000000000000000000000000010000000000000000000000000000000000000000000000000000000000000080000000000000000000000000000000000000000000000000009e6cb3e7a63a5900000000000000000000000000000000000000000000000000000000000000a000000000000000000000000042dddab8759ee8cc4e089e74802cbef169f0d059000000000000000000000000000000000000000000000000000000000000004000000000000000000000000000000000000000000000000000000000000000247cf5dab0000000000000000000000000000000000000000000000000000000000000000300000000000000000000000000000000000000000000000000000000",
          "blockHash": "0x0f719612edb11a36e49bee3f11e6d2ceab2b24cce6c96b81acc70ec063bfa383",
          "blockNumber": "0x1c49f3d",
          "transactionHash": "0x2e8f37cf49aa165c55f82494d0ebb0b413e839caba1b0dc1265f093fa373284d",
          "transactionIndex": "0x0",
          "logIndex": "0x5",
          "removed": false
        }
      ],
      "status": "0x1",
      "logsBloom": "0x00000000000000100000000800000000000040000000004000000000040000100400000000000000008000000000000000000100000000000000200000000000004000001000000000000000000000000000000000000000000000000200000000040000000000000004000000800000000000000000001000000000000000000000000400000000000000000000000000000000280000000000000000000000000000004000020000000000000010000000002000000000000000000000000000001000000088000000000040000000000000000000000000000000000000001000000000000000000000000000000400000808000000000020000000000000",
      "type": "0x2",
      "effectiveGasPrice": "0x684ee1800"
    }
  ],
  "libraries": [],
  "pending": [],
  "returns": {},
  "timestamp": 1706780264,
  "chain": 43113,
  "multi": false,
  "commit": "0d1554c"
}